{"abi":[{"type":"function","name":"_recoverSignerInternal","inputs":[{"name":"hash","type":"bytes32","internalType":"bytes32"},{"name":"timestamp","type":"uint256","internalType":"uint256"},{"name":"signature","type":"bytes","internalType":"bytes"}],"outputs":[{"name":"signer","type":"address","internalType":"address"}],"stateMutability":"pure"},{"type":"function","name":"getDocumentInfo","inputs":[{"name":"hash","type":"bytes32","internalType":"bytes32"}],"outputs":[{"name":"document","type":"tuple","internalType":"struct IDocumentRegistry.Document","components":[{"name":"hash","type":"bytes32","internalType":"bytes32"},{"name":"timestamp","type":"uint256","internalType":"uint256"},{"name":"signer","type":"address","internalType":"address"},{"name":"signature","type":"bytes","internalType":"bytes"},{"name":"exists","type":"bool","internalType":"bool"}]}],"stateMutability":"view"},{"type":"function","name":"getDocumentSignature","inputs":[{"name":"hash","type":"bytes32","internalType":"bytes32"}],"outputs":[{"name":"signature","type":"bytes","internalType":"bytes"}],"stateMutability":"view"},{"type":"function","name":"getDocumentSigner","inputs":[{"name":"hash","type":"bytes32","internalType":"bytes32"}],"outputs":[{"name":"signer","type":"address","internalType":"address"}],"stateMutability":"view"},{"type":"function","name":"getDocumentTimestamp","inputs":[{"name":"hash","type":"bytes32","internalType":"bytes32"}],"outputs":[{"name":"timestamp","type":"uint256","internalType":"uint256"}],"stateMutability":"view"},{"type":"function","name":"isDocumentStored","inputs":[{"name":"hash","type":"bytes32","internalType":"bytes32"}],"outputs":[{"name":"exists","type":"bool","internalType":"bool"}],"stateMutability":"view"},{"type":"function","name":"storeDocumentHash","inputs":[{"name":"hash","type":"bytes32","internalType":"bytes32"},{"name":"timestamp","type":"uint256","internalType":"uint256"},{"name":"signature","type":"bytes","internalType":"bytes"}],"outputs":[{"name":"success","type":"bool","internalType":"bool"}],"stateMutability":"nonpayable"},{"type":"function","name":"verifyDocument","inputs":[{"name":"hash","type":"bytes32","internalType":"bytes32"},{"name":"signer","type":"address","internalType":"address"},{"name":"signature","type":"bytes","internalType":"bytes"}],"outputs":[{"name":"isValid","type":"bool","internalType":"bool"}],"stateMutability":"nonpayable"},{"type":"function","name":"verifySignature","inputs":[{"name":"hash","type":"bytes32","internalType":"bytes32"},{"name":"timestamp","type":"uint256","internalType":"uint256"},{"name":"signer","type":"address","internalType":"address"},{"name":"signature","type":"bytes","internalType":"bytes"}],"outputs":[{"name":"isValid","type":"bool","internalType":"bool"}],"stateMutability":"view"},{"type":"event","name":"DocumentStored","inputs":[{"name":"hash","type":"bytes32","indexed":true,"internalType":"bytes32"},{"name":"signer","type":"address","indexed":true,"internalType":"address"},{"name":"timestamp","type":"uint256","indexed":false,"internalType":"uint256"},{"name":"signature","type":"bytes","indexed":false,"internalType":"bytes"}],"anonymous":false},{"type":"event","name":"DocumentVerified","inputs":[{"name":"hash","type":"bytes32","indexed":true,"internalType":"bytes32"},{"name":"signer","type":"address","indexed":true,"internalType":"address"},{"name":"isValid","type":"bool","indexed":false,"internalType":"bool"}],"anonymous":false},{"type":"error","name":"ECDSAInvalidSignature","inputs":[]},{"type":"error","name":"ECDSAInvalidSignatureLength","inputs":[{"name":"length","type":"uint256","internalType":"uint256"}]},{"type":"error","name":"ECDSAInvalidSignatureS","inputs":[{"name":"s","type":"bytes32","internalType":"bytes32"}]}],"bytecode":{"object":"0x608060405234801561000f575f80fd5b506111c18061001d5f395ff3fe608060405234801561000f575f80fd5b5060043610610090575f3560e01c8063a499d6e311610063578063a499d6e31461013e578063bc2d269414610151578063bc6fda2514610164578063dd4ad4b614610177578063f623a2c61461018a575f80fd5b8063090b0a30146100945780631317ad8f146100bd57806346fad899146100e857806395f2f9f41461011d575b5f80fd5b6100a76100a2366004610cde565b6101aa565b6040516100b49190610d38565b60405180910390f35b6100d06100cb366004610dd6565b6102be565b6040516001600160a01b0390911681526020016100b4565b61010d6100f6366004610cde565b5f9081526020819052604090206004015460ff1690565b60405190151581526020016100b4565b61013061012b366004610cde565b610396565b6040519081526020016100b4565b6100d061014c366004610cde565b6103e4565b61010d61015f366004610e39565b610432565b61010d610172366004610dd6565b610546565b61010d610185366004610e9e565b6107ef565b61019d610198366004610cde565b6109d9565b6040516100b49190610ede565b6040805160a0810182525f8082526020820181905291810182905260608082015260808101919091525f8281526020818152604091829020825160a0810184528154815260018201549281019290925260028101546001600160a01b03169282019290925260038201805491929160608401919061022790610ef7565b80601f016020809104026020016040519081016040528092919081815260200182805461025390610ef7565b801561029e5780601f106102755761010080835404028352916020019161029e565b820191905f5260205f20905b81548152906001019060200180831161028157829003601f168201915b50505091835250506004919091015460ff16151560209091015292915050565b5f8085856040516020016102dc929190918252602082015260400190565b6040516020818303038152906040528051906020012090505f8160405160200161033291907f19457468657265756d205369676e6564204d6573736167653a0a3332000000008152601c810191909152603c0190565b60405160208183030381529060405280519060200120905061038b85858080601f0160208091040260200160405190810160405280939291908181526020018383808284375f920191909152508593925050610a7b9050565b979650505050505050565b5f8181526020819052604081206004015460ff166103cf5760405162461bcd60e51b81526004016103c690610f2f565b60405180910390fd5b505f9081526020819052604090206001015490565b5f8181526020819052604081206004015460ff166104145760405162461bcd60e51b81526004016103c690610f2f565b505f908152602081905260409020600201546001600160a01b031690565b5f60418214610480576104796040518060400160405280601881526020017f496e76616c6964207369676e617475726520666f726d61740000000000000000815250610aa3565b505f61053d565b604051631317ad8f60e01b81523090631317ad8f906104a9908990899088908890600401610f9b565b602060405180830381865afa9250505080156104e2575060408051601f3d908101601f191682019092526104df91810190610fc4565b60015b610524576104796040518060400160405280601981526020017f5369676e6174757265207265636f76657279206661696c656400000000000000815250610aa3565b846001600160a01b0316816001600160a01b0316149150505b95945050505050565b5f84806105955760405162461bcd60e51b815260206004820152601e60248201527f446f63756d656e7452656769737472793a20696e76616c69642068617368000060448201526064016103c6565b84428111156105fd5760405162461bcd60e51b815260206004820152602e60248201527f446f63756d656e7452656769737472793a206675747572652074696d6573746160448201526d1b5c081b9bdd08185b1b1bddd95960921b60648201526084016103c6565b84848061061c5760405162461bcd60e51b81526004016103c690610fdf565b5f6106298a8a8a8a6102be565b5f8b81526020819052604090206004015490915060ff16156106c157806001600160a01b03168a7f616d48255f5e6595f6eb84a59b68ea97cd2a73a81be03c417a30693f73d6eeac8b8b8b60405161068393929190611020565b60405180910390a36040515f81526001600160a01b038216908b905f8051602061116c8339815191529060200160405180910390a35f9550506107e3565b6040518060a001604052808b81526020018a8152602001826001600160a01b0316815260200189898080601f0160208091040260200160405190810160405280939291908181526020018383808284375f9201829052509385525050600160209384018190528e8352828452604092839020855181559385015190840155508201516002820180546001600160a01b0319166001600160a01b0390921691909117905560608201516003820190610778908261109b565b50608091909101516004909101805460ff19169115159190911790556040516001600160a01b038216908b907f616d48255f5e6595f6eb84a59b68ea97cd2a73a81be03c417a30693f73d6eeac906107d5908d908d908d90611020565b60405180910390a360019550505b50505050949350505050565b5f848061083e5760405162461bcd60e51b815260206004820152601e60248201527f446f63756d656e7452656769737472793a20696e76616c69642068617368000060448201526064016103c6565b5f83900361085e5760405162461bcd60e51b81526004016103c690610fdf565b6041831461089c576040515f81526001600160a01b0386169087905f8051602061116c833981519152906020015b60405180910390a35f91506109d0565b5f8681526020819052604090206004015460ff166108de576040515f81526001600160a01b0386169087905f8051602061116c8339815191529060200161088c565b5f86815260208190526040902060028101546001600160a01b03878116911614610938576040515f81526001600160a01b0387169088905f8051602061116c8339815191529060200160405180910390a35f9250506109d0565b5f61094988836001015488886102be565b9050866001600160a01b0316816001600160a01b03160361099d57604051600181526001600160a01b0388169089905f8051602061116c8339815191529060200160405180910390a36001935050506109d0565b6040515f81526001600160a01b0388169089905f8051602061116c8339815191529060200160405180910390a35f935050505b50949350505050565b5f8181526020819052604090206003018054606091906109f890610ef7565b80601f0160208091040260200160405190810160405280929190818152602001828054610a2490610ef7565b8015610a6f5780601f10610a4657610100808354040283529160200191610a6f565b820191905f5260205f20905b815481529060010190602001808311610a5257829003601f168201915b50505050509050919050565b5f805f80610a898686610ae9565b925092509250610a998282610b32565b5090949350505050565b610ae681604051602401610ab79190610ede565b60408051601f198184030181529190526020810180516001600160e01b031663104c13eb60e21b179052610bee565b50565b5f805f8351604103610b20576020840151604085015160608601515f1a610b1288828585610bf7565b955095509550505050610b2b565b505081515f91506002905b9250925092565b5f826003811115610b4557610b45611157565b03610b4e575050565b6001826003811115610b6257610b62611157565b03610b805760405163f645eedf60e01b815260040160405180910390fd5b6002826003811115610b9457610b94611157565b03610bb55760405163fce698f760e01b8152600481018290526024016103c6565b6003826003811115610bc957610bc9611157565b03610bea576040516335e2f38360e21b8152600481018290526024016103c6565b5050565b610ae681610cbf565b5f80807f7fffffffffffffffffffffffffffffff5d576e7357a4501ddfe92f46681b20a0841115610c3057505f91506003905082610cb5565b604080515f808252602082018084528a905260ff891692820192909252606081018790526080810186905260019060a0016020604051602081039080840390855afa158015610c81573d5f803e3d5ffd5b5050604051601f1901519150506001600160a01b038116610cac57505f925060019150829050610cb5565b92505f91508190505b9450945094915050565b5f6a636f6e736f6c652e6c6f6790505f80835160208501845afa505050565b5f60208284031215610cee575f80fd5b5035919050565b5f81518084525f5b81811015610d1957602081850181015186830182015201610cfd565b505f602082860101526020601f19601f83011685010191505092915050565b60208152815160208201526020820151604082015260018060a01b0360408301511660608201525f606083015160a06080840152610d7960c0840182610cf5565b90506080840151151560a08401528091505092915050565b5f8083601f840112610da1575f80fd5b50813567ffffffffffffffff811115610db8575f80fd5b602083019150836020828501011115610dcf575f80fd5b9250929050565b5f805f8060608587031215610de9575f80fd5b8435935060208501359250604085013567ffffffffffffffff811115610e0d575f80fd5b610e1987828801610d91565b95989497509550505050565b6001600160a01b0381168114610ae6575f80fd5b5f805f805f60808688031215610e4d575f80fd5b85359450602086013593506040860135610e6681610e25565b9250606086013567ffffffffffffffff811115610e81575f80fd5b610e8d88828901610d91565b969995985093965092949392505050565b5f805f8060608587031215610eb1575f80fd5b843593506020850135610ec381610e25565b9250604085013567ffffffffffffffff811115610e0d575f80fd5b602081525f610ef06020830184610cf5565b9392505050565b600181811c90821680610f0b57607f821691505b602082108103610f2957634e487b7160e01b5f52602260045260245ffd5b50919050565b60208082526024908201527f446f63756d656e7452656769737472793a20646f63756d656e74206e6f7420666040820152631bdd5b9960e21b606082015260800190565b81835281816020850137505f828201602090810191909152601f909101601f19169091010190565b848152836020820152606060408201525f610fba606083018486610f73565b9695505050505050565b5f60208284031215610fd4575f80fd5b8151610ef081610e25565b60208082526021908201527f446f63756d656e7452656769737472793a20656d707479207369676e617475726040820152606560f81b606082015260800190565b838152604060208201525f61053d604083018486610f73565b634e487b7160e01b5f52604160045260245ffd5b601f821115611096575f81815260208120601f850160051c810160208610156110735750805b601f850160051c820191505b818110156110925782815560010161107f565b5050505b505050565b815167ffffffffffffffff8111156110b5576110b5611039565b6110c9816110c38454610ef7565b8461104d565b602080601f8311600181146110fc575f84156110e55750858301515b5f19600386901b1c1916600185901b178555611092565b5f85815260208120601f198616915b8281101561112a5788860151825594840194600190910190840161110b565b508582101561114757878501515f19600388901b60f8161c191681555b5050505050600190811b01905550565b634e487b7160e01b5f52602160045260245ffdfe6894ebbaf406311560473c5438f7c75d70dc611e024968e8f8596dbd034c5084a2646970667358221220418bd4531151cfbbdb42c4fbee23243d79bb21d808fd9570b380f46e7c3631db64736f6c63430008140033","linkReferences":{}},"methodIdentifiers":{"_recoverSignerInternal(bytes32,uint256,bytes)":"1317ad8f","getDocumentInfo(bytes32)":"090b0a30","getDocumentSignature(bytes32)":"f623a2c6","getDocumentSigner(bytes32)":"a499d6e3","getDocumentTimestamp(bytes32)":"95f2f9f4","isDocumentStored(bytes32)":"46fad899","storeDocumentHash(bytes32,uint256,bytes)":"bc6fda25","verifyDocument(bytes32,address,bytes)":"dd4ad4b6","verifySignature(bytes32,uint256,address,bytes)":"bc2d2694"},"id":0}