{"abi":[{"type":"function","name":"_recoverSignerInternal","inputs":[{"name":"hash","type":"bytes32","internalType":"bytes32"},{"name":"timestamp","type":"uint256","internalType":"uint256"},{"name":"signature","type":"bytes","internalType":"bytes"}],"outputs":[{"name":"signer","type":"address","internalType":"address"}],"stateMutability":"pure"},{"type":"function","name":"getDocumentCount","inputs":[],"outputs":[{"name":"count","type":"uint256","internalType":"uint256"}],"stateMutability":"view"},{"type":"function","name":"getDocumentHashByIndex","inputs":[{"name":"index","type":"uint256","internalType":"uint256"}],"outputs":[{"name":"hash","type":"bytes32","internalType":"bytes32"}],"stateMutability":"view"},{"type":"function","name":"getDocumentInfo","inputs":[{"name":"hash","type":"bytes32","internalType":"bytes32"}],"outputs":[{"name":"document","type":"tuple","internalType":"struct IDocumentRegistry.Document","components":[{"name":"hash","type":"bytes32","internalType":"bytes32"},{"name":"timestamp","type":"uint256","internalType":"uint256"},{"name":"signer","type":"address","internalType":"address"},{"name":"signature","type":"bytes","internalType":"bytes"}]}],"stateMutability":"view"},{"type":"function","name":"getDocumentSignature","inputs":[{"name":"hash","type":"bytes32","internalType":"bytes32"}],"outputs":[{"name":"signature","type":"bytes","internalType":"bytes"}],"stateMutability":"view"},{"type":"function","name":"getDocumentSigner","inputs":[{"name":"hash","type":"bytes32","internalType":"bytes32"}],"outputs":[{"name":"signer","type":"address","internalType":"address"}],"stateMutability":"view"},{"type":"function","name":"getDocumentTimestamp","inputs":[{"name":"hash","type":"bytes32","internalType":"bytes32"}],"outputs":[{"name":"timestamp","type":"uint256","internalType":"uint256"}],"stateMutability":"view"},{"type":"function","name":"isDocumentStored","inputs":[{"name":"hash","type":"bytes32","internalType":"bytes32"}],"outputs":[{"name":"exists","type":"bool","internalType":"bool"}],"stateMutability":"view"},{"type":"function","name":"storeDocumentHash","inputs":[{"name":"hash","type":"bytes32","internalType":"bytes32"},{"name":"timestamp","type":"uint256","internalType":"uint256"},{"name":"signature","type":"bytes","internalType":"bytes"}],"outputs":[{"name":"success","type":"bool","internalType":"bool"}],"stateMutability":"nonpayable"},{"type":"function","name":"verifyDocument","inputs":[{"name":"hash","type":"bytes32","internalType":"bytes32"},{"name":"signer","type":"address","internalType":"address"},{"name":"signature","type":"bytes","internalType":"bytes"}],"outputs":[{"name":"isValid","type":"bool","internalType":"bool"}],"stateMutability":"nonpayable"},{"type":"function","name":"verifySignature","inputs":[{"name":"hash","type":"bytes32","internalType":"bytes32"},{"name":"timestamp","type":"uint256","internalType":"uint256"},{"name":"signer","type":"address","internalType":"address"},{"name":"signature","type":"bytes","internalType":"bytes"}],"outputs":[{"name":"isValid","type":"bool","internalType":"bool"}],"stateMutability":"view"},{"type":"event","name":"DocumentStored","inputs":[{"name":"hash","type":"bytes32","indexed":true,"internalType":"bytes32"},{"name":"signer","type":"address","indexed":true,"internalType":"address"},{"name":"timestamp","type":"uint256","indexed":false,"internalType":"uint256"},{"name":"signature","type":"bytes","indexed":false,"internalType":"bytes"}],"anonymous":false},{"type":"event","name":"DocumentVerified","inputs":[{"name":"hash","type":"bytes32","indexed":true,"internalType":"bytes32"},{"name":"signer","type":"address","indexed":true,"internalType":"address"},{"name":"isValid","type":"bool","indexed":false,"internalType":"bool"}],"anonymous":false},{"type":"error","name":"ECDSAInvalidSignature","inputs":[]},{"type":"error","name":"ECDSAInvalidSignatureLength","inputs":[{"name":"length","type":"uint256","internalType":"uint256"}]},{"type":"error","name":"ECDSAInvalidSignatureS","inputs":[{"name":"s","type":"bytes32","internalType":"bytes32"}]}],"bytecode":{"object":"0x608060405234801561000f575f80fd5b506112a58061001d5f395ff3fe608060405234801561000f575f80fd5b50600436106100a6575f3560e01c80639f788d101161006e5780639f788d1014610160578063a499d6e314610173578063bc2d269414610186578063bc6fda2514610199578063dd4ad4b6146101ac578063f623a2c6146101bf575f80fd5b8063090b0a30146100aa5780631317ad8f146100d35780633d1c2273146100fe57806346fad8991461011057806395f2f9f41461014d575b5f80fd5b6100bd6100b8366004610e09565b6101df565b6040516100ca9190610e63565b60405180910390f35b6100e66100e1366004610ef0565b6102dc565b6040516001600160a01b0390911681526020016100ca565b6001545b6040519081526020016100ca565b61013d61011e366004610e09565b5f908152602081905260409020600201546001600160a01b0316151590565b60405190151581526020016100ca565b61010261015b366004610e09565b6103b4565b61010261016e366004610e09565b610435565b6100e6610181366004610e09565b6104b9565b61013d610194366004610f53565b61053a565b61013d6101a7366004610ef0565b61064e565b61013d6101ba366004610fb8565b610914565b6101d26101cd366004610e09565b610b04565b6040516100ca9190610ff8565b604080516080810182525f80825260208201819052918101919091526060808201525f828152602081815260409182902082516080810184528154815260018201549281019290925260028101546001600160a01b03169282019290925260038201805491929160608401919061025590611011565b80601f016020809104026020016040519081016040528092919081815260200182805461028190611011565b80156102cc5780601f106102a3576101008083540402835291602001916102cc565b820191905f5260205f20905b8154815290600101906020018083116102af57829003601f168201915b5050505050815250509050919050565b5f8085856040516020016102fa929190918252602082015260400190565b6040516020818303038152906040528051906020012090505f8160405160200161035091907f19457468657265756d205369676e6564204d6573736167653a0a3332000000008152601c810191909152603c0190565b6040516020818303038152906040528051906020012090506103a985858080601f0160208091040260200160405190810160405280939291908181526020018383808284375f920191909152508593925050610ba69050565b979650505050505050565b5f8181526020819052604081206002015482906001600160a01b031661041b5760405162461bcd60e51b8152602060048201526017602482015276111bd8dd5b595b9d08191bd95cc81b9bdd08195e1a5cdd604a1b60448201526064015b60405180910390fd5b5f8381526020819052604090206001015491505b50919050565b6001545f9082106104965760405162461bcd60e51b815260206004820152602560248201527f446f63756d656e7452656769737472793a20696e646578206f7574206f6620626044820152646f756e647360d81b6064820152608401610412565b600182815481106104a9576104a9611043565b905f5260205f2001549050919050565b5f8181526020819052604081206002015482906001600160a01b031661051b5760405162461bcd60e51b8152602060048201526017602482015276111bd8dd5b595b9d08191bd95cc81b9bdd08195e1a5cdd604a1b6044820152606401610412565b50505f908152602081905260409020600201546001600160a01b031690565b5f60418214610588576105816040518060400160405280601881526020017f496e76616c6964207369676e617475726520666f726d61740000000000000000815250610bce565b505f610645565b604051631317ad8f60e01b81523090631317ad8f906105b190899089908890889060040161107f565b602060405180830381865afa9250505080156105ea575060408051601f3d908101601f191682019092526105e7918101906110a8565b60015b61062c576105816040518060400160405280601981526020017f5369676e6174757265207265636f76657279206661696c656400000000000000815250610bce565b846001600160a01b0316816001600160a01b0316149150505b95945050505050565b5f848061069d5760405162461bcd60e51b815260206004820152601e60248201527f446f63756d656e7452656769737472793a20696e76616c6964206861736800006044820152606401610412565b84428111156107055760405162461bcd60e51b815260206004820152602e60248201527f446f63756d656e7452656769737472793a206675747572652074696d6573746160448201526d1b5c081b9bdd08185b1b1bddd95960921b6064820152608401610412565b8484806107245760405162461bcd60e51b8152600401610412906110c3565b5f6107318a8a8a8a6102dc565b5f8b8152602081905260409020600201549091506001600160a01b0316156107cf57806001600160a01b03168a7f616d48255f5e6595f6eb84a59b68ea97cd2a73a81be03c417a30693f73d6eeac8b8b8b60405161079193929190611104565b60405180910390a36040515f81526001600160a01b038216908b905f805160206112508339815191529060200160405180910390a35f955050610908565b60405180608001604052808b81526020018a8152602001826001600160a01b0316815260200189898080601f0160208091040260200160405190810160405280939291908181526020018383808284375f9201829052509390945250508c8152602081815260409182902084518155908401516001820155908301516002820180546001600160a01b0319166001600160a01b0390921691909117905560608301519091506003820190610883908261117f565b50506001805480820182555f919091527fb10e2d527612073b26eecdfd717e6a320cf44b4afac2b0732d9fcbe2b7fa0cf6018b9055506040516001600160a01b038216908b907f616d48255f5e6595f6eb84a59b68ea97cd2a73a81be03c417a30693f73d6eeac906108fa908d908d908d90611104565b60405180910390a360019550505b50505050949350505050565b5f84806109635760405162461bcd60e51b815260206004820152601e60248201527f446f63756d656e7452656769737472793a20696e76616c6964206861736800006044820152606401610412565b5f8390036109835760405162461bcd60e51b8152600401610412906110c3565b604183146109c1576040515f81526001600160a01b0386169087905f80516020611250833981519152906020015b60405180910390a35f9150610afb565b5f868152602081905260409020600201546001600160a01b0316610a09576040515f81526001600160a01b0386169087905f80516020611250833981519152906020016109b1565b5f86815260208190526040902060028101546001600160a01b03878116911614610a63576040515f81526001600160a01b0387169088905f805160206112508339815191529060200160405180910390a35f925050610afb565b5f610a7488836001015488886102dc565b9050866001600160a01b0316816001600160a01b031603610ac857604051600181526001600160a01b0388169089905f805160206112508339815191529060200160405180910390a3600193505050610afb565b6040515f81526001600160a01b0388169089905f805160206112508339815191529060200160405180910390a35f935050505b50949350505050565b5f818152602081905260409020600301805460609190610b2390611011565b80601f0160208091040260200160405190810160405280929190818152602001828054610b4f90611011565b8015610b9a5780601f10610b7157610100808354040283529160200191610b9a565b820191905f5260205f20905b815481529060010190602001808311610b7d57829003601f168201915b50505050509050919050565b5f805f80610bb48686610c14565b925092509250610bc48282610c5d565b5090949350505050565b610c1181604051602401610be29190610ff8565b60408051601f198184030181529190526020810180516001600160e01b031663104c13eb60e21b179052610d19565b50565b5f805f8351604103610c4b576020840151604085015160608601515f1a610c3d88828585610d22565b955095509550505050610c56565b505081515f91506002905b9250925092565b5f826003811115610c7057610c7061123b565b03610c79575050565b6001826003811115610c8d57610c8d61123b565b03610cab5760405163f645eedf60e01b815260040160405180910390fd5b6002826003811115610cbf57610cbf61123b565b03610ce05760405163fce698f760e01b815260048101829052602401610412565b6003826003811115610cf457610cf461123b565b03610d15576040516335e2f38360e21b815260048101829052602401610412565b5050565b610c1181610dea565b5f80807f7fffffffffffffffffffffffffffffff5d576e7357a4501ddfe92f46681b20a0841115610d5b57505f91506003905082610de0565b604080515f808252602082018084528a905260ff891692820192909252606081018790526080810186905260019060a0016020604051602081039080840390855afa158015610dac573d5f803e3d5ffd5b5050604051601f1901519150506001600160a01b038116610dd757505f925060019150829050610de0565b92505f91508190505b9450945094915050565b5f6a636f6e736f6c652e6c6f6790505f80835160208501845afa505050565b5f60208284031215610e19575f80fd5b5035919050565b5f81518084525f5b81811015610e4457602081850181015186830182015201610e28565b505f602082860101526020601f19601f83011685010191505092915050565b60208152815160208201526020820151604082015260018060a01b0360408301511660608201525f6060830151608080840152610ea360a0840182610e20565b949350505050565b5f8083601f840112610ebb575f80fd5b50813567ffffffffffffffff811115610ed2575f80fd5b602083019150836020828501011115610ee9575f80fd5b9250929050565b5f805f8060608587031215610f03575f80fd5b8435935060208501359250604085013567ffffffffffffffff811115610f27575f80fd5b610f3387828801610eab565b95989497509550505050565b6001600160a01b0381168114610c11575f80fd5b5f805f805f60808688031215610f67575f80fd5b85359450602086013593506040860135610f8081610f3f565b9250606086013567ffffffffffffffff811115610f9b575f80fd5b610fa788828901610eab565b969995985093965092949392505050565b5f805f8060608587031215610fcb575f80fd5b843593506020850135610fdd81610f3f565b9250604085013567ffffffffffffffff811115610f27575f80fd5b602081525f61100a6020830184610e20565b9392505050565b600181811c9082168061102557607f821691505b60208210810361042f57634e487b7160e01b5f52602260045260245ffd5b634e487b7160e01b5f52603260045260245ffd5b81835281816020850137505f828201602090810191909152601f909101601f19169091010190565b848152836020820152606060408201525f61109e606083018486611057565b9695505050505050565b5f602082840312156110b8575f80fd5b815161100a81610f3f565b60208082526021908201527f446f63756d656e7452656769737472793a20656d707479207369676e617475726040820152606560f81b606082015260800190565b838152604060208201525f610645604083018486611057565b634e487b7160e01b5f52604160045260245ffd5b601f82111561117a575f81815260208120601f850160051c810160208610156111575750805b601f850160051c820191505b8181101561117657828155600101611163565b5050505b505050565b815167ffffffffffffffff8111156111995761119961111d565b6111ad816111a78454611011565b84611131565b602080601f8311600181146111e0575f84156111c95750858301515b5f19600386901b1c1916600185901b178555611176565b5f85815260208120601f198616915b8281101561120e578886015182559484019460019091019084016111ef565b508582101561122b57878501515f19600388901b60f8161c191681555b5050505050600190811b01905550565b634e487b7160e01b5f52602160045260245ffdfe6894ebbaf406311560473c5438f7c75d70dc611e024968e8f8596dbd034c5084a2646970667358221220e26b9f7c2e8abb891c84b854a8b8d791ae1b3568a57e248ebfd527b5ebe7bfed64736f6c63430008140033","linkReferences":{}},"methodIdentifiers":{"_recoverSignerInternal(bytes32,uint256,bytes)":"1317ad8f","getDocumentCount()":"3d1c2273","getDocumentHashByIndex(uint256)":"9f788d10","getDocumentInfo(bytes32)":"090b0a30","getDocumentSignature(bytes32)":"f623a2c6","getDocumentSigner(bytes32)":"a499d6e3","getDocumentTimestamp(bytes32)":"95f2f9f4","isDocumentStored(bytes32)":"46fad899","storeDocumentHash(bytes32,uint256,bytes)":"bc6fda25","verifyDocument(bytes32,address,bytes)":"dd4ad4b6","verifySignature(bytes32,uint256,address,bytes)":"bc2d2694"},"id":0}