{"abi":[{"type":"function","name":"_recoverSignerInternal","inputs":[{"name":"hash","type":"bytes32","internalType":"bytes32"},{"name":"timestamp","type":"uint256","internalType":"uint256"},{"name":"signature","type":"bytes","internalType":"bytes"}],"outputs":[{"name":"signer","type":"address","internalType":"address"}],"stateMutability":"pure"},{"type":"function","name":"getDocumentInfo","inputs":[{"name":"hash","type":"bytes32","internalType":"bytes32"}],"outputs":[{"name":"document","type":"tuple","internalType":"struct IDocumentRegistry.Document","components":[{"name":"hash","type":"bytes32","internalType":"bytes32"},{"name":"timestamp","type":"uint256","internalType":"uint256"},{"name":"signer","type":"address","internalType":"address"},{"name":"signature","type":"bytes","internalType":"bytes"},{"name":"exists","type":"bool","internalType":"bool"}]}],"stateMutability":"view"},{"type":"function","name":"getDocumentSignature","inputs":[{"name":"hash","type":"bytes32","internalType":"bytes32"}],"outputs":[{"name":"signature","type":"bytes","internalType":"bytes"}],"stateMutability":"view"},{"type":"function","name":"getDocumentSigner","inputs":[{"name":"hash","type":"bytes32","internalType":"bytes32"}],"outputs":[{"name":"signer","type":"address","internalType":"address"}],"stateMutability":"view"},{"type":"function","name":"getDocumentTimestamp","inputs":[{"name":"hash","type":"bytes32","internalType":"bytes32"}],"outputs":[{"name":"timestamp","type":"uint256","internalType":"uint256"}],"stateMutability":"view"},{"type":"function","name":"isDocumentStored","inputs":[{"name":"hash","type":"bytes32","internalType":"bytes32"}],"outputs":[{"name":"exists","type":"bool","internalType":"bool"}],"stateMutability":"view"},{"type":"function","name":"storeDocumentHash","inputs":[{"name":"hash","type":"bytes32","internalType":"bytes32"},{"name":"timestamp","type":"uint256","internalType":"uint256"},{"name":"signature","type":"bytes","internalType":"bytes"}],"outputs":[{"name":"success","type":"bool","internalType":"bool"}],"stateMutability":"nonpayable"},{"type":"function","name":"verifyDocument","inputs":[{"name":"hash","type":"bytes32","internalType":"bytes32"},{"name":"signer","type":"address","internalType":"address"},{"name":"signature","type":"bytes","internalType":"bytes"}],"outputs":[{"name":"isValid","type":"bool","internalType":"bool"}],"stateMutability":"nonpayable"},{"type":"function","name":"verifySignature","inputs":[{"name":"hash","type":"bytes32","internalType":"bytes32"},{"name":"timestamp","type":"uint256","internalType":"uint256"},{"name":"signer","type":"address","internalType":"address"},{"name":"signature","type":"bytes","internalType":"bytes"}],"outputs":[{"name":"isValid","type":"bool","internalType":"bool"}],"stateMutability":"view"},{"type":"event","name":"DocumentStored","inputs":[{"name":"hash","type":"bytes32","indexed":true,"internalType":"bytes32"},{"name":"signer","type":"address","indexed":true,"internalType":"address"},{"name":"timestamp","type":"uint256","indexed":false,"internalType":"uint256"},{"name":"signature","type":"bytes","indexed":false,"internalType":"bytes"}],"anonymous":false},{"type":"event","name":"DocumentVerified","inputs":[{"name":"hash","type":"bytes32","indexed":true,"internalType":"bytes32"},{"name":"signer","type":"address","indexed":true,"internalType":"address"},{"name":"isValid","type":"bool","indexed":false,"internalType":"bool"}],"anonymous":false},{"type":"error","name":"ECDSAInvalidSignature","inputs":[]},{"type":"error","name":"ECDSAInvalidSignatureLength","inputs":[{"name":"length","type":"uint256","internalType":"uint256"}]},{"type":"error","name":"ECDSAInvalidSignatureS","inputs":[{"name":"s","type":"bytes32","internalType":"bytes32"}]}],"bytecode":{"object":"0x608060405234801561000f575f80fd5b506111188061001d5f395ff3fe608060405234801561000f575f80fd5b5060043610610090575f3560e01c8063a499d6e311610063578063a499d6e31461013e578063bc2d269414610151578063bc6fda2514610164578063dd4ad4b614610177578063f623a2c61461018a575f80fd5b8063090b0a30146100945780631317ad8f146100bd57806346fad899146100e857806395f2f9f41461011d575b5f80fd5b6100a76100a2366004610c32565b6101aa565b6040516100b49190610c8c565b60405180910390f35b6100d06100cb366004610d2a565b6102be565b6040516001600160a01b0390911681526020016100b4565b61010d6100f6366004610c32565b5f9081526020819052604090206004015460ff1690565b60405190151581526020016100b4565b61013061012b366004610c32565b610396565b6040519081526020016100b4565b6100d061014c366004610c32565b6103e4565b61010d61015f366004610d90565b610432565b61010d610172366004610d2a565b6104d1565b61010d610185366004610df5565b61077a565b61019d610198366004610c32565b61091b565b6040516100b49190610e35565b6040805160a0810182525f8082526020820181905291810182905260608082015260808101919091525f8281526020818152604091829020825160a0810184528154815260018201549281019290925260028101546001600160a01b03169282019290925260038201805491929160608401919061022790610e4e565b80601f016020809104026020016040519081016040528092919081815260200182805461025390610e4e565b801561029e5780601f106102755761010080835404028352916020019161029e565b820191905f5260205f20905b81548152906001019060200180831161028157829003601f168201915b50505091835250506004919091015460ff16151560209091015292915050565b5f8085856040516020016102dc929190918252602082015260400190565b6040516020818303038152906040528051906020012090505f8160405160200161033291907f19457468657265756d205369676e6564204d6573736167653a0a3332000000008152601c810191909152603c0190565b60405160208183030381529060405280519060200120905061038b85858080601f0160208091040260200160405190810160405280939291908181526020018383808284375f9201919091525085939250506109bd9050565b979650505050505050565b5f8181526020819052604081206004015460ff166103cf5760405162461bcd60e51b81526004016103c690610e86565b60405180910390fd5b505f9081526020819052604090206001015490565b5f8181526020819052604081206004015460ff166104145760405162461bcd60e51b81526004016103c690610e86565b505f908152602081905260409020600201546001600160a01b031690565b5f6041821461044257505f6104c8565b604051631317ad8f60e01b81523090631317ad8f9061046b908990899088908890600401610ef2565b602060405180830381865afa9250505080156104a4575060408051601f3d908101601f191682019092526104a191810190610f1b565b60015b6104af57505f6104c8565b846001600160a01b0316816001600160a01b0316149150505b95945050505050565b5f84806105205760405162461bcd60e51b815260206004820152601e60248201527f446f63756d656e7452656769737472793a20696e76616c69642068617368000060448201526064016103c6565b84428111156105885760405162461bcd60e51b815260206004820152602e60248201527f446f63756d656e7452656769737472793a206675747572652074696d6573746160448201526d1b5c081b9bdd08185b1b1bddd95960921b60648201526084016103c6565b8484806105a75760405162461bcd60e51b81526004016103c690610f36565b5f6105b48a8a8a8a6102be565b5f8b81526020819052604090206004015490915060ff161561064c57806001600160a01b03168a7f616d48255f5e6595f6eb84a59b68ea97cd2a73a81be03c417a30693f73d6eeac8b8b8b60405161060e93929190610f77565b60405180910390a36040515f81526001600160a01b038216908b905f805160206110c38339815191529060200160405180910390a35f95505061076e565b6040518060a001604052808b81526020018a8152602001826001600160a01b0316815260200189898080601f0160208091040260200160405190810160405280939291908181526020018383808284375f9201829052509385525050600160209384018190528e8352828452604092839020855181559385015190840155508201516002820180546001600160a01b0319166001600160a01b03909216919091179055606082015160038201906107039082610ff2565b50608091909101516004909101805460ff19169115159190911790556040516001600160a01b038216908b907f616d48255f5e6595f6eb84a59b68ea97cd2a73a81be03c417a30693f73d6eeac90610760908d908d908d90610f77565b60405180910390a360019550505b50505050949350505050565b5f84806107c95760405162461bcd60e51b815260206004820152601e60248201527f446f63756d656e7452656769737472793a20696e76616c69642068617368000060448201526064016103c6565b6107d384846109e5565b5f8681526020819052604090206004015460ff16610820576040515f81526001600160a01b0386169087905f805160206110c38339815191529060200160405180910390a35f9150610912565b5f86815260208190526040902060028101546001600160a01b0387811691161461087a576040515f81526001600160a01b0387169088905f805160206110c38339815191529060200160405180910390a35f925050610912565b5f61088b88836001015488886102be565b9050866001600160a01b0316816001600160a01b0316036108df57604051600181526001600160a01b0388169089905f805160206110c38339815191529060200160405180910390a3600193505050610912565b6040515f81526001600160a01b0388169089905f805160206110c38339815191529060200160405180910390a35f935050505b50949350505050565b5f81815260208190526040902060030180546060919061093a90610e4e565b80601f016020809104026020016040519081016040528092919081815260200182805461096690610e4e565b80156109b15780601f10610988576101008083540402835291602001916109b1565b820191905f5260205f20905b81548152906001019060200180831161099457829003601f168201915b50505050509050919050565b5f805f806109cb8686610a69565b9250925092506109db8282610ab2565b5090949350505050565b80610a025760405162461bcd60e51b81526004016103c690610f36565b60418114610a655760405162461bcd60e51b815260206004820152602a60248201527f446f63756d656e7452656769737472793a20696e76616c6964207369676e61746044820152691d5c9948199bdc9b585d60b21b60648201526084016103c6565b5050565b5f805f8351604103610aa0576020840151604085015160608601515f1a610a9288828585610b6a565b955095509550505050610aab565b505081515f91506002905b9250925092565b5f826003811115610ac557610ac56110ae565b03610ace575050565b6001826003811115610ae257610ae26110ae565b03610b005760405163f645eedf60e01b815260040160405180910390fd5b6002826003811115610b1457610b146110ae565b03610b355760405163fce698f760e01b8152600481018290526024016103c6565b6003826003811115610b4957610b496110ae565b03610a65576040516335e2f38360e21b8152600481018290526024016103c6565b5f80807f7fffffffffffffffffffffffffffffff5d576e7357a4501ddfe92f46681b20a0841115610ba357505f91506003905082610c28565b604080515f808252602082018084528a905260ff891692820192909252606081018790526080810186905260019060a0016020604051602081039080840390855afa158015610bf4573d5f803e3d5ffd5b5050604051601f1901519150506001600160a01b038116610c1f57505f925060019150829050610c28565b92505f91508190505b9450945094915050565b5f60208284031215610c42575f80fd5b5035919050565b5f81518084525f5b81811015610c6d57602081850181015186830182015201610c51565b505f602082860101526020601f19601f83011685010191505092915050565b60208152815160208201526020820151604082015260018060a01b0360408301511660608201525f606083015160a06080840152610ccd60c0840182610c49565b90506080840151151560a08401528091505092915050565b5f8083601f840112610cf5575f80fd5b50813567ffffffffffffffff811115610d0c575f80fd5b602083019150836020828501011115610d23575f80fd5b9250929050565b5f805f8060608587031215610d3d575f80fd5b8435935060208501359250604085013567ffffffffffffffff811115610d61575f80fd5b610d6d87828801610ce5565b95989497509550505050565b6001600160a01b0381168114610d8d575f80fd5b50565b5f805f805f60808688031215610da4575f80fd5b85359450602086013593506040860135610dbd81610d79565b9250606086013567ffffffffffffffff811115610dd8575f80fd5b610de488828901610ce5565b969995985093965092949392505050565b5f805f8060608587031215610e08575f80fd5b843593506020850135610e1a81610d79565b9250604085013567ffffffffffffffff811115610d61575f80fd5b602081525f610e476020830184610c49565b9392505050565b600181811c90821680610e6257607f821691505b602082108103610e8057634e487b7160e01b5f52602260045260245ffd5b50919050565b60208082526024908201527f446f63756d656e7452656769737472793a20646f63756d656e74206e6f7420666040820152631bdd5b9960e21b606082015260800190565b81835281816020850137505f828201602090810191909152601f909101601f19169091010190565b848152836020820152606060408201525f610f11606083018486610eca565b9695505050505050565b5f60208284031215610f2b575f80fd5b8151610e4781610d79565b60208082526021908201527f446f63756d656e7452656769737472793a20656d707479207369676e617475726040820152606560f81b606082015260800190565b838152604060208201525f6104c8604083018486610eca565b634e487b7160e01b5f52604160045260245ffd5b601f821115610fed575f81815260208120601f850160051c81016020861015610fca5750805b601f850160051c820191505b81811015610fe957828155600101610fd6565b5050505b505050565b815167ffffffffffffffff81111561100c5761100c610f90565b6110208161101a8454610e4e565b84610fa4565b602080601f831160018114611053575f841561103c5750858301515b5f19600386901b1c1916600185901b178555610fe9565b5f85815260208120601f198616915b8281101561108157888601518255948401946001909101908401611062565b508582101561109e57878501515f19600388901b60f8161c191681555b5050505050600190811b01905550565b634e487b7160e01b5f52602160045260245ffdfe6894ebbaf406311560473c5438f7c75d70dc611e024968e8f8596dbd034c5084a26469706673582212202a5e30edb6640a30323e81dc8c260cc273b35127b513dd3b0a42b2822def0ab464736f6c63430008140033","linkReferences":{}},"methodIdentifiers":{"_recoverSignerInternal(bytes32,uint256,bytes)":"1317ad8f","getDocumentInfo(bytes32)":"090b0a30","getDocumentSignature(bytes32)":"f623a2c6","getDocumentSigner(bytes32)":"a499d6e3","getDocumentTimestamp(bytes32)":"95f2f9f4","isDocumentStored(bytes32)":"46fad899","storeDocumentHash(bytes32,uint256,bytes)":"bc6fda25","verifyDocument(bytes32,address,bytes)":"dd4ad4b6","verifySignature(bytes32,uint256,address,bytes)":"bc2d2694"},"id":0}